:100000000C9432080C9479080C9479080C947908B3
:100010000C9479080C9479080C9479080C9479085C
:100020000C9479080C9479080C94EB280C94BE2954
:100030000C94C21F0C9479080C9479080C947908DC
:100040000C9479080C9479080C9479080C9479082C
:100050000C9479080C942A200C9479080C94790853
:100060000C9479080C9479080C9479080C9479080C
:100070000C9479080C9479080C9479080C947908FC
:100080000C9479080C9479080C9479080C947908EC
:100090000C9479080C9479080C9479080C947908DC
:1000A0000C9479080C9479080C94790829423A0048
:1000B0003B003C003D003E003F004000410042004C
:1000C000430044004500460001514C0035001E002D
:1000D0001F0020002100220023002400250026000C
:1000E00027002D002E004C002A004A002B000000A3
:1000F00014001A000800150017001C0018000C005E
:10010000120013002F00300031004B0039000000B6
:1001100004001600070009000A000B000D000E0085
:100120000F0033003400280000004E00E1000151B0
:100130001D001B000600190005001100100036000C
:10014000370038000000E50052004D00E000E300F9
:100150000000E2002C0000002C0000002C00000039
:10016000E2000151E700500051004F000100010082
:1001700001000100010001000100AC00AE00AB0075
:10018000A800AA00A9000100010049000100010027
:100190000100010001000100010001000100010057
:1001A00001000100010001000070010001000000D9
:1001B0003470357036703770387039703A703B7003
:1001C0000100010001000100010001000100000028
:1001D0000100010001000100010001000100010017
:1001E0000100010001000100000001000100010008
:1001F0000100010030703270317033700100010075
:1002000001000100000001000100010001000100E7
:1002100000000100010000000100000001000000DA
:100220000100010001000100010001000100013096
:100230000230010001000100010001000100010085
:1002400001000100010001000100010001000100A6
:100250000100010001000100010001000100010096
:100260000100010001000100010001000100000087
:100270000100010001000100010001000100010076
:100280000100010001000100010001000100000067
:100290000100010001000100010001000100010056
:1002A0000100010001000100000001000100010047
:1002B0000100010001000100010001000100010036
:1002C0000100010000000100010001000100010027
:1002D000000001000100000001000000010000001A
:1002E0000100010001000100010001000100010006
:1002F00001000100010001000100010001000100F6
:1003000001000100010001000100010001000100E5
:1003100001000100010001000100010001000100D5
:1003200001000100010001000100010001000000C6
:1003300001000100010001000100010001000100B5
:1003400001000100010001000100010001000000A6
:100350000100010001000100010001000100010095
:100360000100010001000100000001000100010086
:100370000100010001000100010001000100010075
:100380000100010000000100010001000100010066
:100390000000010001000000010000000100000059
:1003A0000100010001000100010001000100010045
:1003B0000100010001000100010001000100010035
:1003C0000100010001000100010001000100010025
:1003D0000100010001000100010001000100010015
:1003E0000100010001000100010001000100000006
:1003F00001000100010001000100010001000100F5
:1004000001000100010001000100010001000000E5
:1004100001000100010001000100010001000100D4
:1004200001000100010001000000010001000100C5
:1004300001000100010001000100010001000100B4
:1004400001000100000001000100010001000100A5
:100450000000010001000000010000000100000098
:100460000100010001000100010001000100010084
:100470000100010001000100010001000100010074
:100480000100010001000100010001000100010064
:100490000100010001000100010001000100010054
:1004A0000100010001000100010001000100000045
:1004B0000100010001000100010001000100010034
:1004C0000100010001000100010001000100000025
:1004D0000100010001000100010001000100010014
:1004E0000100010001000100000001000100010005
:1004F00001000100010001000100010001000100F4
:1005000001000100000001000100010001000100E4
:1005100000000100010000000100000001000000D7
:1005200001000100010001000100010001000100C3
:1005300001000100010001000100010001000100B3
:1005400001000100010001000100010001000100A3
:100550000100010001000100010001000100010093
:100560000100010001000100010001000100000084
:100570000100010001000100010001000100010073
:100580000100010001000100010001000100000064
:100590000100010001000100010001000100010053
:1005A0000100010001000100000001000100010044
:1005B0000100010001000100010001000100010033
:1005C0000100010000000100010001000100010024
:1005D0000000010001000000010000000100000017
:1005E0000100010001000100010001000100010003
:1005F00001000100010001000100010001000100F3
:1006000001000100010001000100010001000100E2
:1006100001000100010001000100010001000100D2
:1006200001000100010001000100010001000000C3
:1006300001000100010001000100010001000100B2
:1006400001000100010001000100010001000000A3
:100650000100010001000100010001000100010092
:100660000100010001000100000001000100010083
:100670000100010001000100010001000100010072
:100680000100010000000100010001000100010063
:100690000000010001000000010000000100000056
:1006A0000100010001000100010001000100010042
:1006B0000100010001000100010001000100010032
:1006C0000100010001000100010001000100010022
:1006D0000100010001000100010001000100010012
:1006E0000100010001000100010001000100000003
:1006F00001000100010001000100010001000100F2
:1007000001000100010001000100010001000000E2
:1007100001000100010001000100010001000100D1
:1007200001000100010001000000010001000100C2
:1007300001000100010001000100010001000100B1
:1007400001000100000001000100010001000100A2
:100750000000010001000000010000000100000095
:100760000100010001000100010001000100010081
:100770000100010001000100010001000100010071
:100780000100010001000100010001000100010061
:100790000100010001000100010001000100010051
:1007A0000100010001000100010001000100000042
:1007B0000100010001000100010001000100010031
:1007C0000100010001000100010001000100000022
:1007D0000100010001000100010001000100010011
:1007E0000100010001000100000001000100010002
:1007F00001000100010001000100010001000100F1
:1008000001000100000001000100010001000100E1
:1008100000000100010000000100000001000000D4
:1008200001000100010001000100010001000100C0
:1008300001000100010001000100010001000100B0
:1008400001000100010001000100010001000100A0
:100850000100010001000100010001000100010090
:100860000100010001000100010001000100000081
:100870000100010001000100010001000100010070
:100880000100010001000100010001000100000061
:100890000100010001000100010001000100010050
:1008A0000100010001000100000001000100010041
:1008B0000100010001000100010001000100010030
:1008C0000100010000000100010001000100010021
:1008D0000000010001000000010000000100000014
:1008E0000100010001000100010001000100010000
:1008F00001000100010001000100010001000100F0
:1009000001000100010001000100010001000100DF
:1009100001000100010001000100010001000100CF
:1009200001000100010001000100010001000000C0
:1009300001000100010001000100010001000100AF
:1009400001000100010001000100010001000000A0
:10095000010001000100010001000100010001008F
:100960000100010001000100000001000100010080
:10097000010001000100010001000100010001006F
:100980000100010000000100010001000100010060
:100990000000010001000000010000000100000053
:1009A000010001000100010001000100010001003F
:1009B000010001000100010001000100010001002F
:1009C000010001000100010001000100010001001F
:1009D000010001000100010001000100010001000F
:1009E0000100010001000100010001000100000000
:1009F00001000100010001000100010001000100EF
:100A000001000100010001000100010001000000DF
:100A100001000100010001000100010001000100CE
:100A200001000100010001000000010001000100BF
:100A300001000100010001000100010001000100AE
:100A4000010001000000010001000100010001009F
:100A50000000010001000000010000000100000092
:100A6000010001000100010001000100010001007E
:100A7000010001000100010001000100010001006E
:100A8000010001000100010001000100010001005E
:100A9000010001000100010001000100010001004E
:100AA000010001000100010001000100010000003F
:100AB000010001000100010001000100010001002E
:100AC000010001000100010001000100010000001F
:100AD000010001000100010001000100010001000E
:100AE00001000100010001000000010001000100FF
:100AF00001000100010001000100010001000100EE
:100B000001000100000001000100010001000100DE
:100B100000000100010000000100000001000000D1
:100B200001000100010001000100010001000100BD
:100B300001000100010001000100010001000100AD
:100B4000010001000100010001000100010001009D
:100B5000010001000100010001000100010001008D
:100B6000010001000100010001000100010000007E
:100B7000010001000100010001000100010001006D
:100B8000010001000100010001000100010000005E
:100B9000010001000100010001000100010001004D
:100BA000010001000100010000000100010001003E
:100BB000010001000100010001000100010001002D
:100BC000010001000000010001000100010001001E
:100BD0000000010001000000010000000100000011
:100BE00001000100010001000100010001000100FD
:100BF00001000100010001000100010001000100ED
:100C000001000100010001000100010001000100DC
:100C100001000100010001000100010001000100CC
:100C200001000100010001000100010001000000BD
:100C300001000100010001000100010001000100AC
:100C4000010001000100010001000100010000009D
:100C5000010001000100010001000100010001008C
:100C6000010001000100010000000100010001007D
:100C7000010001000100010001000100010001006C
:100C8000010001000000010001000100010001005D
:100C90000000010001000000010000000100000050
:100CA0000100010001000100010001006432146430
:100CB0003214783C1E1E140A0500000000010101D8
:100CC0000202030405050607090A0B0C0E0F111298
:100CD000141517191B1D1F212325282A2C2F3134E9
:100CE00036393B3E414346494C4F5255585A5D6157
:100CF00064676A6D707376797C7F8386898C8F9246
:100D000095989B9EA2A5A7AAADB0B3B6B9BCBEC12B
:100D1000C4C6C9CBCED0D3D5D7DADCDEE0E2E4E678
:100D2000E8EAEBEDEEF0F1F3F4F5F6F8F9FAFAFB98
:100D3000FCFDFDFEFEFEFFFFFFFFFFFFFFFEFEFED0
:100D4000FDFDFCFBFAFAF9F8F6F5F4F3F1F0EEED3F
:100D5000EBEAE8E6E4E2E0DEDCDAD7D5D3D0CECBCE
:100D6000C9C6C4C1BEBCB9B6B3B0ADAAA7A5A29E40
:100D70009B9895928F8C898683807C797673706D31
:100D80006A6764615D5A5855524F4C494643413E2B
:100D90003B393634312F2C2A282523211F1D1B19BE
:100DA00017151412110F0E0C0B0A0907060505047E
:100DB0000302020101010000000000000000010127
:100DC000010101010101010202020202020202020A
:100DD00003030303030303030404040404040505D9
:100DE000050505060606060607070707080808089A
:100DF0000909090A0A0A0A0B0B0B0C0C0C0D0D0D44
:100E00000E0E0F0F0F1010111111121213131414D4
:100E1000151516161717181819191A1A1B1C1C1D48
:100E20001D1E1F1F2020212222232425252627279F
:100E300028292A2B2B2C2D2E2F2F303132333435CD
:100E400036363738393A3B3C3D3E3F4041424344D9
:100E5000464748494A4B4C4D4F50515253555657AF
:100E6000585A5B5C5E5F606263646667696A6C6D5A
:100E70006E707173747678797B7C7E8081838486D2
:100E8000888A8B8D8F91929496989A9B9D9FA1A30F
:100E9000A5A7A9ABADAFB1B3B5B7B9BBBDBFC1C411
:100EA000C6C8CACCCFD1D3D6D8DADCDFE1E4E6E8D5
:100EB000EBEDF0F2F5F7FAFCFF12036B0065007939
:100EC0000062006F00610072006400000016037190
:100ED000006D006B006200750069006C00640065C5
:100EE00000720000000403090409026D00040100FF
:100EF000A0FA090400000103010100092111010009
:100F0000012240000705810308000A0904010001CD
:100F100003010200092111010001224D0007058291
:100F20000308000A0904020001030000000921115E
:100F30000100012236000705830308000A090403A3
:100F400000010300000009211101000122390007FE
:100F50000584032000011201100100000008EDFECD
:100F6000606001000102000105010906A1010507F9
:100F700019E029E71500250195087501810205088A
:100F800019012905950575019102950175039101D6
:100F90000507190029F71500250195F8750181024B
:100FA000C005010980A10185021601002603001A6F
:100FB00081002A8300751095018100C0050C09018C
:100FC000A1018503160100269C021A01002A9C0239
:100FD000751095018100C005010902A1010901A157
:100FE00000050919012905150025019505750181DF
:100FF000029501750381010501093009311581252B
:101000007F95027508810609381581257F95017540
:10101000088106050C0A38021581257F950175089F
:101020008106C0C005010906A101050719E029E7ED
:10103000150025019508750181029501750881014A
:10104000050819012905950575019102950175039A
:1010500091010507190029FF150026FF0095067567
:10106000088100C011241FBECFEFDAE0DEBFCDBF84
:1010700004B603FE27C08091B0029091B102A09106
:10108000B202B091B3028730904BA740B04BD1F47D
:101090001092B0021092B1021092B2021092B302FA
:1010A00014BE84B7877F84BF0FB6F894A89580914B
:1010B0006000886180936000109260000FBEE0E0E5
:1010C000F8E3099511E0A0E0B1E0E8E2FAE502C03A
:1010D00005900D92AE33B107D9F722E0AEE3B1E04F
:1010E00001C01D92A03BB207E1F70E9438260C9484
:1010F000122D0C94000090E080E00895089508956A
:1011000081E0089581FF03C0229A2A9808952298C9
:10111000FCCF81E008950C9480080E9423182FEFE3
:1011200084E39CE0215080409040E1F700C0000043
:101130000C944F20FF920F931F93CF93DF938C015A
:10114000FC01C081D18180919501811148C08281CB
:10115000882309F43FC0CE010E94881DF82E682F15
:10116000CE010E94301DBE018F2D0E947B0AEC0132
:10117000B8010E948B08882309F478C0B801CE0119
:101180000E94AC0C882309F471C0C633F0E7DF0776
:1011900009F484C0C0F5C53190E7D90728F5C230FD
:1011A000E0E7DE0708F099C0C115F0E7DF0709F4B2
:1011B00058C0C130D04709F460C081E0809340013D
:1011C00080934101C801DF91CF911F910F91FF9052
:1011D0000C948908CE010E945E1DF82EC4CFCE016A
:1011E0000E94881DBE01C1CFC43390E7D90709F41E
:1011F0004EC0C533D04709F7F80182818823B1F189
:101200000E94941033C0CA33F0E7DF0709F457C0D7
:1012100070F4F8018281C833F0E7DF0709F44AC0AF
:1012200008F443C0882311F10E94D80F1FC0CC33AB
:10123000E0E7DE0709F4D5C008F448C0CD33D04755
:1012400009F0BBCFF8018281882309F4F1C0109224
:1012500041010E94F41F90933F0180933E0180E280
:10126000CDC0F801828181110E948D0880E0DF915C
:10127000CF911F910F91FF900895F80182818823EB
:10128000A9F380913702816080933702EFCFF80194
:101290008281882359F30E949E10E8CFF801828151
:1012A000882321F30E94890FE1CF8823F9F20E945D
:1012B000A10FDCCF8823D1F20E94C00FD7CFF80155
:1012C0008281882399F20E94F00FD0CFF8018281A9
:1012D000882361F20E940810C9CFF8018281882317
:1012E00009F470CF0E94451F811102C00E941F1F88
:1012F0000E94621F90E09093A1028093A002FE01E1
:10130000E350F0478091A0028160E231F105C8F41A
:10131000E457F64F0C94C42C9E09AA09AE09B209F1
:10132000B609BA09BE09C209C609CA09CE09D20955
:10133000D609DA09DE09E209E609EA098091A00284
:1013400082608093A0028091A0020E94661F0E948A
:1013500023188CCF8091A0028460F3CF8091A002EB
:101360008860EFCF8091A0028061EBCF8091A002D6
:101370008062E7CF8091A0028064E3CF8091A002D9
:101380008068DFCF8091A0028460EACF8091A002C4
:101390008E7FD7CF8091A0028D7FD3CF8091A00286
:1013A0008B7FCFCF8091A002877FCBCF8091A0028F
:1013B0008F7EC7CF8091A0028F7DC3CF8091A00286
:1013C0008F7BBFCF8091A0028F77BBCF8091A0028F
:1013D0008B7FEACF9091A002892F97FB87F98058E5
:1013E000B0CFF8018281882361F0109240010E9401
:1013F000F41F90933F0180933E0182E00E948D157F
:1014000035CF8091400181110FC080913E019091B4
:101410003F010E940020883C910530F486E20E9442
:10142000621486E20E943E1582E00E9494151ECF4F
:101430008091410181110FC080913E0190913F0147
:101440000E940020883C910530F487E20E946214DB
:1014500087E20E943E1580E2E8CF0C94FD0C269AAC
:101460002E988FEF9FEF909387008093860082E203
:101470008093800089E1809381000C94ED230E9489
:101480002F0A0C94FB0C2E9881110AC080918000C9
:101490008F7D8093800010928B0010928A000895B7
:1014A000853061F4809180008062809380008FEFAE
:1014B0009FEF90938B0080938A0008959091800015
:1014C00090629093800025E030E0A901481B51090B
:1014D000CA019A01220F331F280F391F8FEF9FEF88
:1014E00002C0969587952A95E2F7E3CF0C9482087F
:1014F0000C94760A0895E72FF0E096E0899FE00DBE
:10150000F11D112484E0EE0FFF1F8A95E1F7E60F2D
:10151000F11DEE0FFF1FE455FF4F85919491089543
:10152000FC01EE0FFF1FE455F34F85919491089550
:101530000E947B0A0E942B0C811520E5920708F07F
:1015400040C0811530E4930708F0FAC0883E910549
:1015500018F5803E910508F07DC1883A910580F428
:10156000853A910508F087C08130910509F472C170
:1015700020F08430910508F06DC190E080E008957E
:101580008D3B910508F482C0803C9105B0F3805CEE
:1015900091090E94900A0895811540E2940750F441
:1015A000811521E0920708F055C1803F910528F38D
:1015B00090650895811530E3930708F0BEC09F70D1
:1015C000E8CF811545E5940760F5811524E592077C
:1015D00008F0E5C0811532E5930750F4811541E527
:1015E000940708F4B0C0982F8827816F906A0895F7
:1015F000282F26952695AC014370552781159345D4
:1016000008F0BEC081E090E002C0880F991F4A95A3
:10161000E2F740E2249F90011124822B932B9C68D7
:101620000895803340E7940798F4803220E79207CA
:1016300008F0BFC0811536E5930708F4B5C09C01DA
:1016400030569F702115304108F097CF9062089571
:10165000813320E7920709F4B3C008F4AEC08233A7
:1016600040E7940709F4AFC08333904709F085CF72
:1016700080E093ED0895853A910509F4A7C0863A74
:10168000910509F0A6C082E890E40895883A910592
:1016900009F4A2C0893A910509F4A1C08A3A9105DA
:1016A00009F4A0C08B3A910509F49FC08C3A9105CA
:1016B00009F49EC08B3B910509F49DC08C3B9105BC
:1016C00009F49CC08D3A910509F49BC0803B9105BB
:1016D00009F49AC08E3A910509F499C08F3A9105A0
:1016E00009F498C0813B910509F497C0823B9105AC
:1016F00009F496C0833B910509F495C0843B91059C
:1017000009F494C0853B910509F493C0863B91058B
:1017100009F492C0873B910509F491C0883B91057B
:1017200009F490C0893B910509F48FC08A3B91056B
:1017300009F48EC080E094E408959927906C089590
:101740009F70906A08959C0154E0369527955A95AC
:10175000E1F7922F9370482F437021E030E002C0F0
:10176000220F331F4A95E2F73C68392B8695869500
:10177000837040E2849FC0011124822B932B089533
:1017800081E090E002C0880F991F4A95E2F740E29D
:10179000249F90011124822B932B9A680895982FEF
:1017A0008827846F906A0895982F882788279F71CB
:1017B0004DCF80529047946D089580E091ED08954B
:1017C00080E090ED089580E092ED089581E890E446
:1017D000089583E890E4089582EE94E4089589EEF4
:1017E00094E408958AEE94E4089585EB94E40895D2
:1017F00086EB94E4089583EB94E4089584EB94E4F9
:10180000089587EB94E408958CEC94E408958DECAE
:1018100094E4089583E895E408958AE895E40895AA
:1018200082E995E4089584E995E4089581E296E4D7
:10183000089583E296E4089584E296E4089585E2AB
:1018400096E4089586E296E4089587E296E4089582
:101850008AE296E408958238910549F1B0F4813323
:10186000910509F45CC048F48932910509F452C02D
:101870008A32910509F458C008958533910509F419
:1018800044C08933910599F00895833E910531F163
:1018900038F4803E910591F0823E9105B1F00895B3
:1018A000863E910511F1873E910541F10895209101
:1018B000A0022370C9F080EE90E008952091A0026C
:1018C00020FF12C089E390E008952091A00222FF3A
:1018D0000BC024FF2EC090E080E008952091A0026C
:1018E00022FD2AC024FDF7CF08952091A00223FFF6
:1018F000FBCF24FDF0CF87EE90E008952091A00269
:1019000023FFF0CF86EE90E008952091A00225FD00
:1019100016C008952091A00225FD14C008952091BD
:10192000A00226FD12C008952091A00226FD10C03D
:10193000089583EE90E0089582EE90E0089589E2A4
:1019400090E0089585E390E008958AE290E008959C
:1019500081E390E0C9CF08950F931F93CF938C013B
:10196000FB018281811106C0C1E08C2FCF911F91B4
:101970000F910895C0914F01C11125C00531104745
:1019800099F70E94AB0C81E080934F010E94F41FF5
:1019900090934E0180934D011092420110924401A8
:1019A0001092430110924601109245011092480195
:1019B0001092470110924A011092490110924C0175
:1019C00010924B01D2CF80914D0190914E010E9417
:1019D0000020883C910540F680914201E82FF0E01C
:1019E000EE0FFF1FED5BFE4F118300838F5F80932F
:1019F0004201C0E0BACF0C947E080C947F0885B7F2
:101A0000806885BF85B7806885BFA4E2B1E061E0EA
:101A100070E08D91E82FE295EF70F0E041A18F70BA
:101A20009B0101C0220F8A95EAF7922F909594238B
:101A300091A382A1822B82A381E0AA32B80749F741
:101A4000A4E1B1E061E070E08D91E82FE295EF70E4
:101A5000F0E041A18F709B0101C0220F8A95EAF747
:101A6000922F9095942391A382A1822B82A381E04F
:101A7000A432B80749F7ECE5F1E0A0E5B1E088E66B
:101A800091E0119211921D921D928E179F07C9F736
:101A90000C943F0A4F925F927F928F929F92AF92E7
:101AA000BF92CF92DF92EF92FF920F931F93CF934B
:101AB000DF9300E511E094E2E92E91E0F92EE801D0
:101AC000CC24C394D12C99249394A880B9801982F2
:101AD0001882D7018D917D01E82FE295EF70F0E03B
:101AE00091A18F70960101C0220F8A95EAF7892F84
:101AF000822B81A382A1822E8094882182A3B0EAC6
:101B0000BA95F1F784E1482E81E0582E90E080E00C
:101B1000D2017D912D01472F42954F7050E0DA019F
:101B200090967C90488159817F70D60102C0AA0F9F
:101B3000BB1F7A95E2F7BD01672109F057C0B601D6
:101B4000082E02C0660F771F0A94E2F7462B572B28
:101B500059834883019680319105D1F681A188226D
:101B600081A282A1282B22A388819981A816B90677
:101B700041F0909268010E94F41F90936A01809353
:101B800069012296BAE2EB16B1E0FB0609F09DCF9F
:101B9000809168018823B9F08091690190916A0170
:101BA0000E940020069778F0ECE5F1E08CE591E0EA
:101BB000D8012D913D918D01219331938A179B0777
:101BC000B9F7109268010E942D0A81E0DF91CF9150
:101BD0001F910F91FF90EF90DF90CF90BF90AF904B
:101BE0009F908F907F905F904F90089570E060E09D
:101BF000ADCFE82FF0E0EE0FFF1FE45AFE4F8081DB
:101C00009181089508953EB1242F209523233EB15C
:101C1000432B3FB7F894FC01680F791FE617F707CD
:101C200011F43FBF0895819198E04EB9000000C0C3
:101C300087FF2EB9880F000000C000C000C02EB979
:101C400000C09A9591F7EACF2DB1242B2DB99B01B5
:101C5000220F331F620F731F0E94030E87EC90E068
:101C60000197F1F700C00000089544E00C94240EA1
:101C7000CF92DF92EF92FF920F931F93CF93DF9358
:101C8000E901662309F466C0E42EF12CEFEFF0E0E1
:101C9000E61BF109EE9D8001EF9D100DFE9D100DDC
:101CA0001124212FE12FFF27EE1AFF0A5CE3C52E36
:101CB000D12CB6010E949C2CFB01BC01E69EC00108
:101CC000E79E900DF69E900D1124B6010E949C2C6B
:101CD000E230F10589F168F4812F262F210F30972A
:101CE00081F0242F461B319761F080E020E040E036
:101CF00008C0E430F10551F128F1842F861B359797
:101D0000A1F7E42FF0E0E754F24F4491E22FF0E026
:101D1000E754F24F9491E82FF0E0E754F24FE4914A
:101D200049839883EA83DF91CF911F910F91FF90B0
:101D3000EF90DF90CF900895862F810FE42F412FF1
:101D40002E2FDFCFE42FE61B842FF9CF842F462FD1
:101D5000410FD7CF842F242FD4CF88E090E00C946C
:101D6000D22CAB01BC0188E090E00C94F02CE4E6AE
:101D7000F2E083E08083109265028FEF8283838399
:101D80006091640270916502809166029091670291
:101D90000C94B10E80916402ECE6F2E080FF06C084
:101DA00060E170E08CE692E00C94350E11821082B6
:101DB0001282339682E0EC39F807C1F7F1CFECE6F6
:101DC000F2E0818360834283339692E0EC39F90735
:101DD000C1F70C94CA0EEF92FF920F931F93CF930B
:101DE000DF9300D01F92CDB7DEB7182FE92EF62E65
:101DF000042F8091640290916502A0916602B091D7
:101E000067028093680290936902A0936A02B0937C
:101E10006B028091640280FF1FC09E012F5F3F4FC5
:101E2000812F9E2D0E94380E8091680210FB87F949
:101E3000809368021695809169028078812BE0FA80
:101E400087F980936902F0926A0200936B024B81DA
:101E500069818A810E94DF0E0F900F900F90DF91B1
:101E6000CF911F910F91FF90EF9008950F931F93C3
:101E7000CF93DF93EC01062F142F9091640290FF13
:101E800043C0892F8E77823021F5CE010E94EB0E60
:101E900080916402C0FB87F980936402C6958091AB
:101EA00065028078C82BD0FBC7F9C0936502009308
:101EB00066021093670260916402709165028091DE
:101EC000660290916702DF91CF911F910F910C9460
:101ED000B10E892F86958F732EE3280F2F73243030
:101EE00018F410916702D4CF865C8F73893080F626
:101EF000991F9927991FD0916502CD2FCC0FC92B1F
:101F0000D7FBDD27D0F9C4CFDF91CF911F910F917F
:101F10000895E4E6F2E02081221F2227221F30915B
:101F20006502432F440F842F822B37FB992790F9AA
:101F3000089668E671E00E94B02C438162810C949F
:101F4000360F20916402221F2227221F3091650242
:101F5000432F440F842F822B37FB992790F9883029
:101F6000910540F4805A9E4F40916702609166024D
:101F70000C94360F089768E671E00E94B02CF4CFFD
:101F800060916602683F90F4685F80916402881FE8
:101F90008827881F90916502292F220F97FB992788
:101FA00090F940916702822B0C94360F6FEFEDCFC2
:101FB00060916602683090F0685080916402881FDA
:101FC0008827881F90916502292F220F97FB992758
:101FD00090F940916702822B0C94360F60E0EDCFB0
:101FE00040916702483F90F4485F80916402881FE7
:101FF0008827881F90916502292F220F97FB992728
:1020000090F960916602822B0C94360F4FEFEDCF62
:1020100040916702483090F0485080916402881FD8
:102020008827881F90916502292F220F97FB9927F7
:1020300090F960916602822B0C94360F40E0EDCF50
:102040009091640290FF3BC09178811126C092600C
:1020500090936402609164027091650280916602BF
:10206000909167020E94B10E80916402982F9E7732
:102070009230D9F410928001881F8827881F909190
:102080006502292F220F97FB992790F9409167024B
:1020900060916602822B0C94360F893110F09063A8
:1020A000D7CF8F73880F982BD3CF982F9695925CAC
:1020B0009F73963108F791E090938001DDCF0895EA
:1020C0008091370281608093370281E080938101A3
:1020D0000E94451F811104C00E941F1F0E94B70E5D
:1020E0000E94AD0E60936402709365028093660255
:1020F000909367026E7761F40E94B70E0E94AD0E56
:102100006093640270936502809366029093670205
:1021100081E0809380018091640280FF04C08695F5
:102120008F730C94201008958091640286958F73AC
:102130008F5F893108F081E00C9420109091640247
:10214000892F8E7F90FF816080936402609164028A
:102150007091650280916602909167020E94B10EB3
:102160008091640280FF04C086958F730C942010C8
:10217000109280012FEF80E792E021508040904044
:10218000E1F700C000000C94CA0ECF93C82F8091D5
:102190007E0190917F010E940020EC2FF0E0EB5433
:1021A000F34FE491E817190609F010F50E94F41FA7
:1021B00090937F0180937E01E0917D01F0E0E754F0
:1021C000F34F449180916402881F8827881F909163
:1021D0006502292F220F97FB992790F960916602DB
:1021E000822B0E94EB0E80917D018F5F80937D0199
:1021F000CF910895CF93C82F80917B0190917C015E
:102200000E940020EC2FF0E0EE54F34FE491E81729
:10221000190609F0E8F40E94F41F90937C01809362
:102220007B014091670260916602809179019091F3
:102230007A010E94EB0E8091790190917A010196CA
:1022400068E671E00E949C2C90937A01809379015A
:10225000CF910895DF92EF92FF920F931F93CF9348
:10226000DF93D82E80917701909178010E94002011
:10227000ED2DE695F0E0EE54F34FE491E8171906E2
:1022800009F0A8F50E94F41F9093780180937701DC
:102290000CE612E0D0E0C0E088E6E82EFF24F394DC
:1022A00080917501909176018C0F9D1FB7010E945E
:1022B0009C2C980140916702609166020E94380E42
:1022C00066960D5F1F4FC03681E0D80749F70E9420
:1022D000CA0E8091750190917601D0FE10C00196D2
:1022E000B7010E949C2C9093760180937501DF9139
:1022F000CF911F910F91FF90EF90DF90089501977C
:10230000F2CFAF92BF92CF92DF92EF92FF920F93F4
:102310001F93CF93DF93C82FFF24FA9480FD02C050
:10232000FF24F39480917301909174010E94002026
:10233000C695EC2FF0E0E155F34FE491E81719064C
:1023400011F008F053C00E94F41F90937401809321
:102350007301CCE6D2E010E000E097E0C92ED12C6A
:10236000198218821A8287E0A82EB12CE12C809164
:1023700072018E0D87FD805F082E000C990B0817E7
:102380001907E9F4209167022A9DC0012B9D900D49
:102390001124B6010E94B02C462F80916402881F40
:1023A0008827881F90916502592F550F97FB992711
:1023B00090F99E0160916602852B0E94380EEF0C09
:1023C00081E0A81AB10899F60F5F1F4F23960031DC
:1023D000110531F60E94CA0E8091720191E0F91246
:1023E00012C081110EC08FE080937201DF91CF91F6
:1023F0001F910F91FF90EF90DF90CF90BF90AF9023
:1024000008958150F1CF90E001968F709927ECCF1D
:10241000BF92CF92DF92EF92FF920F931F93CF93D1
:10242000DF93CDB7DEB7E0970FB6F894DEBF0FBEEF
:10243000CDBF182F80917001909171010E940020F2
:10244000E12FF0E0E455F34FE491E817190611F09D
:1024500008F071C00E94F41F909371018093700185
:102460008E010F5F1F4FF12CE12C6801F8011182E2
:1024700010821282B12C9091000180916F01B99E5F
:10248000800D112480310CF08FE087FD80E0082E54
:10249000000C990BE816F906A1F480916402881FDC
:1024A0008827881F90916502592F550F97FB992710
:1024B00090F998014091670260916602852B0E9415
:1024C000380EB394F7E0BF12D6CF8FEFE81AF80AB0
:1024D0000D5F1F4FE0E1EE16F10441F6ACE6B2E00D
:1024E00089E090E09C012F703327F901EE0FFF1F68
:1024F000E20FF31FEC0DFD1D218111962C93119716
:1025000020812C93228112962C9312970196139678
:102510008931910539F70E94CA0E9091000180918E
:102520006F019130E1F48A3FB4F489EF80936F0139
:102530008FEF80930001E0960FB6F894DEBF0FBED8
:10254000CDBFDF91CF911F910F91FF90EF90DF9062
:10255000CF90BF900895815080936F01ECCF873169
:102560002CF086E180936F0181E0E3CF8F5FF4CFA1
:10257000CF93DF9380916D0190916E010E940020B6
:10258000883E934028F10E94F41F90936E0180933F
:102590006D0180916B0190916C010196817099277A
:1025A00090936C0180936B01CCE6D2E09E01409148
:1025B00067026091660290E080E00E94380E2396E8
:1025C00082E0CC39D80791F7DF91CF910C94CA0EF5
:1025D000DF91CF91089580918001882371F18091DE
:1025E000640286958F739EE3980F9F73943018F45E
:1025F00082500C94C5109AE3980F9F73933018F48F
:1026000086500C94FA1097E3980F9F73963018F445
:1026100089500C942A1191E3980F9F73963018F407
:102620008F500C9481119BE2980F9F73933018F494
:1026300085510C9408120C94B81208959093870158
:10264000809386010895E0918601F091870130978B
:1026500021F00190F081E02D099480E00895E0914F
:102660008601F0918701309721F00280F381E02DFF
:1026700009940895E0918601F0918701309721F047
:102680000480F581E02D0994089520918401309112
:1026900085012817390771F0909385018093840193
:1026A000E0918601F0918701309721F00680F78153
:1026B000E02D09940895209182013091830128171B
:1026C000390771F09093830180938201E091860134
:1026D000F0918701309721F00084F185E02D099475
:1026E000089508950C9471130E94EB1F0E94FF0C33
:1026F0000E94BC200E94ED230C9460105F926F92A8
:102700007F928F929F92AF92BF92CF92DF92EF9281
:10271000FF920F931F93CF93DF93CDB7DEB72A9726
:102720000FB6F894DEBF0FBECDBF0E944A0D99E8E8
:10273000A92E91E0B92E10E000E088248394912C1A
:10274000502E802F0E94F90D7C01F501C190D1908F
:102750005F01C816D90609F45EC08091370281FD79
:102760000E94020E90E080E0CE24DF243401082E87
:1027700002C0660C771C0A94E2F7960126213721E5
:10278000232B09F443C08E835F82E620F72081E08B
:10279000EF2809F480E088870E94F41F8160782F79
:1027A0009A8789874E815F8168858A850E9438145F
:1027B000000F111FF801E757FE4F808191816826B5
:1027C0007926718260820E943F230E942313909198
:1027D00088018917B9F10E942313809388012A96F2
:1027E0000FB6F894DEBF0FBECDBFDF91CF911F9122
:1027F0000F91FF90EF90DF90CF90BF90AF909F90A0
:102800008F907F906F905F900C94780A0196803142
:10281000910509F0ABCF0F5F1F4F0630110509F08E
:102820008FCF8FEF89838A831B820E94F41F816080
:10283000782F9D838C8349815A816B818D810E9481
:102840003814C1CF2A960FB6F894DEBF0FBECDBFA5
:10285000DF91CF911F910F91FF90EF90DF90CF907C
:10286000BF90AF909F908F907F906F905F900895F2
:10287000CF93DF93CDB7DEB72B970FB6F894DEBFBB
:102880000FBECDBF4F83588769877A878B871E829B
:102890001D8285E0FE013796DE01119601900D92B2
:1028A0008A95E1F749815A816B817C818D819E8176
:1028B0002B960FB6F894DEBF0FBECDBFDF91CF9140
:1028C0000C94D51A882309F4D8C0823871F40E9478
:1028D000231381FDD2C089E30E94281E0E94F01EAE
:1028E00089E30E94651E0C94F01E833859F40E94FF
:1028F000231380FDC2C083E50E94281E0E94F01EA3
:1029000083E5EFCF843859F40E94231382FDB5C0CC
:1029100087E40E94281E0E94F01E87E4E2CF9CEF0D
:10292000980F913A18F40E94281EDDCF90E2980F7C
:10293000983050F4877091E001C0990F8A95EAF7BA
:10294000892F0E94A71ECFCF9BE5980F933070F47C
:10295000853A31F0863A39F083E890E00C944513DB
:1029600081E890E0FBCF82E890E0F8CF98E5980FFF
:10297000953108F082C0883A09F440C0893A09F4D8
:1029800040C08A3A09F440C08B3A09F440C08C3AFE
:1029900009F440C08B3B09F440C08C3B09F440C0B3
:1029A0008D3A09F440C0803B09F440C08E3A09F4E6
:1029B00040C08F3A09F440C0813B09F440C0823BDB
:1029C00009F440C0833B09F440C0843B09F440C093
:1029D000853B09F440C0863B09F440C0873B09F4BD
:1029E00040C0883B09F440C0893B09F440C08A3BA1
:1029F00009F440C090E080E00C945B1382EE90E01C
:102A0000FBCF89EE90E0F8CF8AEE90E0F5CF85EB32
:102A100090E0F2CF86EB90E0EFCF83EB90E0ECCF4D
:102A200084EB90E0E9CF87EB90E0E6CF8CEC90E090
:102A3000E3CF8DEC90E0E0CF83E891E0DDCF8AE852
:102A400091E0DACF82E991E0D7CF84E991E0D4CF69
:102A500081E292E0D1CF83E292E0CECF84E292E0B5
:102A6000CBCF85E292E0C8CF86E292E0C5CF87E285
:102A700092E0C2CF8AE292E0BFCF0895882309F4A2
:102A80004BC0823871F40E94231381FF45C089E353
:102A90000E94281E0E94F01E89E30E94651E0C946D
:102AA000F01E833859F40E94231380FF35C083E55C
:102AB0000E94281E0E94F01E83E5EFCF843859F44F
:102AC0000E94231382FF28C087E40E94281E0E94D0
:102AD000F01E87E4E2CF9CEF980F913AF0F290E27B
:102AE000980F983050F4877091E001C0990F8A9543
:102AF000EAF7892F0E94AD1ED2CF9BE5980F933045
:102B000020F490E080E00C944513885A853120F43D
:102B100090E080E00C945B130895882321F00E94DC
:102B2000A71E0C94F01E0895882321F00E94AD1E6C
:102B30000C94F01E08958F929F92AF92BF92DF92F5
:102B4000EF92FF920F931F93CF93DF937C01D62FC9
:102B5000C72FFC01058102950F70128111110E948F
:102B6000C61E0E94211ED82E882371F0112321F148
:102B700080E28D0F883000F182E00E940B1E0E94DF
:102B8000211E91E0D82ED926EC2FE295EF70F0E0CF
:102B9000E453FA4E0C94C42CDE15DE152E162E16B8
:102BA00070168C160B160B1697160B162F172F1761
:102BB000A217AB170B16CB17D12CE6CF0C2F0F702B
:102BC000C07F11F00295007F1123A9F0002359F076
:102BD00080E28D0F883010F0D11109C0802F0E9443
:102BE000A71E0E94F01E8D2F0E94621414C0802F19
:102BF0000E94B81EF6CF8D2F0E943E15002359F07B
:102C000080E28D0F883010F0D11124C0802F0E94F7
:102C1000AD1E0E94F01EDD2009F4C4C10E94FE1DFD
:102C200080FDC0C1F70112820E94F81D0E94741C31
:102C3000C7010E94DE170E94F81DDF91CF911F91FE
:102C40000F91FF90EF90DF90BF90AF909F908F908B
:102C50000C94951C802F0E94BE1EDBCFFC2FFF70B2
:102C6000BF2EC07FC03219F0B29480EFB822DD23AE
:102C700069F0D13029F1112369F1002359F0F701EE
:102C8000858180FFB0CF8F70858304C0112361F0F0
:102C9000011104C08B2D0E948D15BDCF8B2D0130ED
:102CA000D1F70E94DA1EB7CF011106C00E94DD1EC7
:102CB0008B2D0E949415AFCF013009F4ACCFF6CF25
:102CC000112321F0063008F0A6CFE4CF053008F03C
:102CD000A2CFEECF002361F38D2F0E943E159BCF34
:102CE0008C2F86958695837069F0813009F093CF9B
:102CF0008D2F9C2F9370111102C090E080E00E94F4
:102D00005B1389CF8D2F9C2F9370111102C090E01F
:102D100080E00E9445137FCF8D2F112329F00E9460
:102D200048220E94342377CF0E94B022FACF8C2F02
:102D3000837009F047C011116ECF2D2F2295269573
:102D40002770220F220F6D2F6F70862E912CB12CC1
:102D5000A12C022E04C0880C991CAA1CBB1C0A942E
:102D6000D2F760E070E0CB01D4FF0FC06FE070E0FD
:102D700080E090E004C0660F771F881F991F2A9596
:102D8000D2F76095709580959095C695C695C3705D
:102D9000C23051F080F4682979298A299B29C130F1
:102DA00071F00E941D1C37CF682979298A299B2937
:102DB0000E94391C30CF0E941D1CC501B4010E9425
:102DC000011C29CF8695112311F08C2F8170882347
:102DD00009F421CF2D2F229526952770220F220F3F
:102DE0006D2F6F70862E912CB12CA12C022E04C059
:102DF000880C991CAA1CBB1C0A94D2F760E070E0F6
:102E0000CB01D4FF0FC06FE070E080E090E004C021
:102E1000660F771F881F991F2A95D2F760957095C6
:102E200080959095C695C695C370C23051F080F4D8
:102E3000682979298A299B29C13071F00E94F71CE1
:102E4000EACE682979298A299B290E94131DE3CE9D
:102E50000E94F71CC501B4010E94DB1CDCCEE0E23D
:102E6000ED0FE53108F062C0F0E0E75CF84E0C943D
:102E7000C42C4E174E174E174E174E174E174E179F
:102E80004E174E174E174E174E174E174E174E171A
:102E90004E175B176917701777178117DF708C2F24
:102EA0008F71112321F00E94741C8D2FF4CE0E948B
:102EB000951C8D2FFECE112341F0053008F0ABCECE
:102EC0008C2F8F710E94BA1CA6CE063008F0A3CEBC
:102ED000F7CF8C2F8F71112339F00E94741C9BCE79
:102EE0008C2F8F711123C9F30E94951C94CE11234E
:102EF00029F08C2F8F710E945F1C8DCE0E94551C73
:102F00008ACE112349F0CF718C2F0E94741C63E08C
:102F10008C2F0E94021E7FCE81E00E940B1E023089
:102F200008F479CE82E00E940B1E75CE112329F0A1
:102F3000011159CE8C2F8F71D0CF0111CDCE8C2F96
:102F40008F71D2CF4C2F4F706D2FC7010E947B081D
:102F50000E947E1B60CE11115ECECF70C230A9F0F0
:102F600040F4CC2379F0C13009F055CE0E941624EC
:102F700052CEC33069F0C43009F04DCE8D2F0E947F
:102F8000652449CE0E94FE2346CE0E942F2443CEC4
:102F90000E94422440CE4C2F4F706D2FC7010E94DB
:102FA0007A0A39CEDF91CF911F910F91FF90EF9068
:102FB000DF90BF90AF909F908F9008950F931F93D5
:102FC000CF93DF93EC01988189812B813C81232B66
:102FD00039F08F3F19F481E09F3F19F080E001C084
:102FE00081E080FD17C0CE010E949A08882391F0ED
:102FF000688179818A810E94D41D8C010E942F1DD5
:103000000E94F61BB801CE01DF91CF911F910F9165
:103010000C949B15DF91CF911F910F9108950E9401
:10302000C61E0E94D71E0E94991E0E94F01E0E947A
:10303000E1230E94342390E080E00E94451390E059
:1030400080E00C945B130E94B51E0C940F180E9434
:10305000CA1DE92FE295EF70E250EE30E0F4F0E0A7
:10306000EC5CF74E0C94C42C421842184B184B18C9
:103070004D184B184B184B184218421852184B1841
:103080004B185218803F19F020F4803E20F481E064
:103090000895843FE1F380E00895803EC0F3813FCE
:1030A000D1F7F5CF93FB882780F90895CF93DF936D
:1030B00000D000D01F92CDB7DEB70F900F900F90C9
:1030C0000F900F90DF91CF910895CF93DF9300D0B1
:1030D00000D000D0CDB7DEB726960FB6F894DEBF8D
:1030E0000FBECDBFDF91CF9108951F93CF93DF9394
:1030F000C091960116E0809197018C1304C0DF9176
:10310000CF911F910895D0E01C9FF0011D9FF00DFD
:103110001124E856FE4F4081518162817381848180
:1031200095810E9465182196C770E5CF4091C8012E
:103130005091C9016091CA017091CB018091CC017D
:103140009091CD010C9465181F93CF93DF938091DC
:10315000CD01807FD1F48091CA018823B1F08091A4
:103160009601D0919701B091C801C091C9014091D9
:10317000CB015091CC01A1E0BF3F09F0A0E0BA0122
:103180006095709516E0D81304C0DF91CF911F9120
:10319000089521E04115510521F02A2FCF3F09F074
:1031A00020E090E020FD38C0189FF001199FF00D3D
:1031B0001124E856FE4F21812C132EC020812B13A1
:1031C0002BC02281211128C0238134812417350787
:1031D00000F1241B350B283C3105F0F42091CD0182
:1031E0002F7020612093CD0126E0289FF001299FB8
:1031F000F00D1124E356FE4F80818F708061808333
:1032000088EC91E00E94DE17DF91CF911F910C9422
:103210007518260F371FDFCF01968770B4CFAF9296
:10322000BF92CF92DF92EF92FF920F931F93CF93B3
:10323000DF93CDB7DEB761970FB6F894DEBF0FBE50
:10324000CDBF8C0185E0F801DE011D9601900D9245
:103250008A95E1F7D8014C9111965C9111971296DD
:10326000EC903091C8016091C9018091CB0190919F
:10327000CC0121E0009731F06F3F19F421E03F3F8E
:1032800009F020E0B22FB170BB2E20FD80C1F80103
:10329000C380D480A090CA01AA2009F427C1C8160F
:1032A000D906D0F1D601A81BB90BCD01FF24F394A8
:1032B000883C910508F0F12C8091CD01982F907FEA
:1032C000FF2009F4CAC0911187C0FE2C651329C0E4
:1032D000341327C0E11025C08F7080618093CD0129
:1032E0000E94961888EC91E00E94DE178091CD0133
:1032F000F80185838F2D61960FB6F894DEBF0FBE5F
:10330000CDBFDF91CF911F910F91FF90EF90DF9094
:10331000CF90BF90AF900895809590958C0D9D1D96
:10332000C5CF81E0CD2831F05F3F19F481E04F3FF8
:1033300009F080E080FD24C081E08E25F82FF17037
:10334000DF2E80FF3FC0809196012091970136E0EB
:10335000821318C04D875E878D859E850E94CA1D89
:10336000292F22952F70223008F1243030F59F70DC
:1033700009F1D80115969C91907FE1F4FB2CBACF0E
:1033800080E0DCCF90E0389FF001399FF00D1124F0
:10339000E856FE4F6181561306C06081461303C094
:1033A00062816E110FC001968770D2CF9F7011F0AD
:1033B000882321F3805E883008F3C8010E94DE175D
:1033C000BD2CDCCFEE2009F495CF8091CD0181603A
:1033D0008093CD01F12C8ECF651312C0341310C031
:1033E000E1100EC0F8018583C8010E94DE1786E057
:1033F000F801A8ECB1E001900D928A95E1F741C087
:103400004D875E878D859E850E942718882309F445
:10341000C8C0EE2009F4C5C08091CD01803270F0A3
:103420002091C8013091C90138872F831986DB8626
:10343000CA868C87CE0107960E94DE1786E0F801C7
:10344000A8ECB1E001900D928A95E1F70E94A418D2
:103450000E949618FF24F3944DCF911115C07C2D36
:10346000D98AC88A6E2D89890E94561888EC91E005
:103470000E94DE1786E0E8ECF1E0DF011D928A95FC
:10348000E9F70E94961836CF651312C0341310C0A6
:10349000E1100EC0F8018583C8010E94DE17E8EC38
:1034A000F1E086E0DF011D928A95E9F7FA2C22CF40
:1034B0004D875E878D859E850E942718882309F495
:1034C00070C0EE2009F46DC08091CD01803208F407
:1034D000B5CF2091C8013091C9013A8329831B825D
:1034E000DD82CC828E83CE010196A6CFC816D90686
:1034F00038F1F601E81BF90BCF01F12C883C91055E
:1035000008F03DC0FE2CEE2009F44BC0651326C028
:10351000341324C08091CD0180FD17C0982F907F77
:10352000A1F0D80115968C931597903F09F45CCFC4
:10353000982F907F905F8F70892B15968C9354CF26
:10354000809590958C0D9D1DD8CF86E0F801A8EC54
:10355000B1E001900D928A95E1F7CCCE4D875E8760
:103560008D859E850E942718811168CF8091CD019D
:1035700081608093CD01C8010E94DE17BBCE7C2DF7
:10358000D98AC88A6E2D89890E94561873CFEE2079
:1035900041F04D875E878D859E850E942718811199
:1035A0004DCFC8010E94DE1755CF1F93CF93DF93F5
:1035B000CDB7DEB72C970FB6F894DEBF0FBECDBFE8
:1035C0004F83588769877A878B879C87CE010796B8
:1035D0000E940F19882309F442C09F8188852A859B
:1035E0003B85232B39F08F3F19F481E09F3F19F081
:1035F00080E001C081E080FD08C04F815885698569
:103600007A858B859C850E94651816E080919601CD
:1036100090919701891709F467C0819FC001112417
:1036200088569E4F0E940F19882309F45DC0E091CF
:1036300096011E9FF0011124E856FE4F40815181F2
:1036400062817381848195810E94651880919601C1
:1036500090E001968770992780939601D7CF86E0F6
:10366000FE013796DE01119601900D928A95E1F7E1
:103670009F8188852A853B85232B39F08F3F19F45C
:1036800081E09F3F19F080E001C081E080FDBDCF67
:103690002091970130E0C9010196877099274091E8
:1036A00096014817190699F096E0929FD001939FD2
:1036B000B00D1124A856BE4FFE01319601900D9217
:1036C0009A95E1F7809397010E9475189ECF0E940A
:1036D0002318109297011092960186E0E8ECF1E031
:1036E000DF011D928A95E9F72C960FB6F894DEBF9C
:1036F0000FBECDBFDF91CF911F910895EF92FF9242
:103700000F931F93CF93DF938C01892B81F0F12CC2
:10371000EE24E394E8012196F8018491843770F453
:10372000843008F05FC08130B1F08230A1F1DF91C8
:10373000CF911F910F91FF90EF900895853709F475
:103740004CC008F43DC09CE7980F903780F78F7706
:103750000E943E1549C00E5F1F4FFE01849190E20A
:10376000980F983060F48770FE2D01C0FF0F8A9586
:10377000EAF78F2F0E94C91E0E94F01E02C00E940D
:1037800062148F2D815030F2EFE9FFE03197F1F7AD
:1037900000C00000F7CF0E5F1F4FFE01849190E242
:1037A000980F983050F48770FE2D01C0FF0F8A9556
:1037B000EAF78F2F0E94CF1EDFCF0E943E15E1CF88
:1037C0000E5F1F4FFE01C491C150D8F28FE99FE0F8
:1037D0000197F1F700C00000F7CF0E5F1F4FFE0109
:1037E000F490CFCF0E9462148E01CBCF08956093E6
:1037F0000E0270930F0280931002909311020C94AA
:103800000F180F931F9300910E0210910F02209139
:10381000100230911102DC01CB01802B912BA22BE5
:10382000B32B80930E0290930F02A0931002B093DB
:1038300011021F910F910C940F180F931F93009179
:103840000E0210910F022091100230911102DC0142
:10385000CB0180239123A223B32380930E02909364
:103860000F02A0931002B09311021F910F910C94BC
:103870000F180F931F9300910E0210910F022091C9
:10388000100230911102DC01CB0180279127A22781
:10389000B32780930E0290930F02A0931002B0936F
:1038A00011021F910F910C940F1810920A0210929E
:1038B0000B0210920C0210920D020C940F1841E0B2
:1038C00050E060E070E004C0440F551F661F771F92
:1038D0008A95D2F740930A0250930B0260930C0230
:1038E00070930D020C940F1841E050E060E070E01E
:1038F00004C0440F551F661F771F8A95D2F7809129
:103900000A0290910B02A0910C02B0910D02842B3F
:10391000952BA62BB72B80930A0290930B02A093B2
:103920000C02B0930D020C940F1841E050E060E0DF
:1039300070E004C0440F551F661F771F8A95D2F7A9
:10394000409550956095709580910A0290910B0278
:10395000A0910C02B0910D0284239523A623B723D6
:1039600080930A0290930B02A0930C02B0930D0275
:103970000C940F1841E050E060E070E004C0440F88
:10398000551F661F771F8A95D2F780910A02909182
:103990000B02A0910C02B0910D0284279527A62757
:1039A000B72780930A0290930B02A0930C02B09366
:1039B0000D020C940F180F931F9300910A0210919F
:1039C0000B0220910C0230910D02DC01CB01802B07
:1039D000912BA22BB32B80930A0290930B02A093FE
:1039E0000C02B0930D021F910F910C940F180F93BE
:1039F0001F9300910A0210910B0220910C0230914A
:103A00000D02DC01CB0180239123A223B3238093F9
:103A10000A0290930B02A0930C02B0930D021F9127
:103A20000F910C940F180F931F9300910A0210919D
:103A30000B0220910C0230910D02DC01CB0180279A
:103A40009127A227B32780930A0290930B02A09399
:103A50000C02B0930D021F910F910C940F18089552
:103A60009295907F890F982F977071E001C0770F22
:103A70009A95EAF786958695869525E0829FC001FE
:103A8000112450E040E0A62FB0E0FC01E40FF51F48
:103A9000E253FE4F60819D01042E02C036952795AA
:103AA0000A94E2F7217021952627272326272083D1
:103AB0004F5F5F4F4530510541F708959295907FD4
:103AC000890F982F977086958695869525E0829F19
:103AD000A001112470E060E080E0FA01E60FF71F1A
:103AE000E253FE4F208130E0092E02C03695279523
:103AF0000A94E2F721703327062E01C0220F0A94A0
:103B0000EAF7822B6F5F7F4F6530710531F70895BB
:103B1000BF92CF92DF92EF92FF920F931F93CF93BA
:103B2000DF938C01C0900A02D0900B02E0900C024F
:103B3000F0900D0280910E0290910F02A091100260
:103B4000B0911102C82AD92AEA2AFB2ACFE1D0E093
:103B5000BC2ED701C6010C2E04C0B695A79597952B
:103B600087950A94D2F780FD0EC0219788F7B12C73
:103B70008B2DDF91CF911F910F91FF90EF90DF90F0
:103B8000CF90BF900895B8018C2F0E94980A01979A
:103B900061F3EECFCF93DF93EC010E94881DBE014D
:103BA000DF91CF910C94980A1F93CF93DF93EB0191
:103BB00090919501992331F0CB01DF91CF911F9125
:103BC0000C94CA1D882379F0CB010E94881D182F00
:103BD000682FCE010E94301DBE01812FDF91CF9151
:103BE0001F910C94980ACB010E945E1D182FF4CFF0
:103BF0008091120285958595859508958091120290
:103C00008770089598E0899F90011124622B60933A
:103C100012020C94741C9091120280958923809357
:103C20001202282F277061F4282F082E000C330B66
:103C30009217130629F08595859585950C94951C0A
:103C4000089590911202977081E009F480E0089540
:103C5000909113019923E1F09091A00297FF18C071
:103C6000E82FE695E695E695EF3139F120910101CF
:103C700030910201E20FF32FF11D877021E030E057
:103C800001C0220F8A95EAF78181822B81830895F2
:103C90002091010130910201F90132969FEF40E03D
:103CA0005191851751F09F3F19F4511101C0942F84
:103CB0004F5F4E31A9F79F3F09F40895290F311D39
:103CC00097FD3A95F9018283089590911301992304
:103CD000F1F09091A00297FF1AC0E82FE695E695C3
:103CE000E695EF3129F12091010130910201E20FB7
:103CF000F32FF11D282F277081E090E001C0880F7D
:103D00002A95EAF7809591818923818308952091EE
:103D1000010130910201F9013296205E3F4F9191ED
:103D2000891303C0DF0111971C92E217F307B9F75B
:103D3000089581E090E0E0910101F0910201E80F27
:103D4000F91F1082019680329105A9F7089590918C
:103D50003602892B809336020895982F9095809192
:103D60003602892380933602089510923602089510
:103D700090913502892B809335020895982F909564
:103D8000809135028923809335020895109235027F
:103D9000089590913402892B809334020895982FCE
:103DA0009095809134028923809334020895109273
:103DB0003402089580931302089510921302089517
:103DC0002091010130910201F9013196205E3F4FAF
:103DD00080E0919191118F5FE217F307D1F7089579
:103DE000E0910101F0910201809136028083E0911F
:103DF0000101F0910201808190913502892B80832D
:103E0000E0910101F0910201808190913402892BAF
:103E1000808390911302992361F0E0910101F09168
:103E200002018081892B80830E94E01E8111109203
:103E3000130280910101909102010C942F136DEEF9
:103E40007EEF90E080E00E94FC2C60E082E090E059
:103E50000E94DE2C60E083E090E00E94DE2C60E0B7
:103E600084E090E00E94DE2C60E085E090E00E941B
:103E7000DE2C60E086E090E00E94DE2C40E050E026
:103E8000BA0188E090E00C94F02C90E080E00E9471
:103E9000D82C21E08D3E9E4F09F020E0822F08951E
:103EA00082E090E00C94CA2C682F82E090E00C94A1
:103EB000DE2C83E090E00C94CA2C682F83E090E025
:103EC0000C94DE2C84E090E00C94CA2C682F84E0E3
:103ED00090E00C94DE2C86E090E00C94CA2C682FC5
:103EE00086E090E00C94DE2C8091A702843051F1A2
:103EF0001092380288E190E020E40FB6F894A8957B
:103F0000809360000FBE2093600080E00E94430A0F
:103F100080E00E94780A83B7817F846083BF83B783
:103F2000816083BF7894889583B78E7F83BF0FB6F7
:103F3000F894A89580916000886180936000109249
:103F400060000FBE089508950895CF930E94A31FA7
:103F50000E944A0D0E94A41FC0E08C2F0E94F90D00
:103F6000892B31F4CF5FC630C1F780E0CF9108953F
:103F700081E0FCCF0E9423180E94ED230E942313AE
:103F80000C94780A1F920F920FB60F9211248F9300
:103F90009F93AF93BF9380913802811113C080919A
:103FA0009C0290919D02A0919E02B0919F02419629
:103FB000A11DB11D80939C0290939D02A0939E022F
:103FC000B0939F02BF91AF919F918F910F900FBEC1
:103FD0000F901F90189582E084BD93E095BD9AEFF5
:103FE00097BD80936E0008952FB7F89480919C023E
:103FF00090919D02A0919E02B0919F022FBF0895C3
:10400000CF92DF92EF92FF920F931F932FB7F89406
:1040100040919C0250919D0260919E0270919F027E
:104020002FBF6A017B01EE24FF248C0130E020E0E9
:10403000C016D106E206F30650F0481B590BCA0120
:104040001F910F91FF90EF90DF90CF900895415016
:104050005109F3CF1F920F920FB60F9211248F9335
:104060009F93AF93BF9380919C0290919D02A091EA
:104070009E02B0919F020196A11DB11D80939C02EA
:1040800090939D02A0939E02B0939F02BF91AF9127
:104090009F918F910F900FBE0F901F9018950E94C7
:1040A0007028F8942FEF87EA91E6215080409040E5
:1040B000E1F700C0000087E090EBDC018093B002E4
:1040C0009093B102A093B202B093B30288E19CE056
:1040D0000FB6F894A895809360000FBE909360008F
:1040E000FFCFAF92BF92CF92DF92EF92FF920F93EA
:1040F0001F93CF93C0E0CC24C394D12CE82EF12C95
:104100008C2F0E94F90D5C0110E000E0C601002E2A
:1041100002C0880F991F0A94E2F78A219B21892BFC
:1041200099F40F5F1F4F0031110581F7CF5FC63043
:1041300039F780E0CF911F910F91FF90EF90DF90C2
:10414000CF90BF90AF900895602F7C2F80E00E94A9
:104150007B0AE816F90629F781E0ECCFCF93C82F48
:104160008CE20E947120882321F08C2FCF910C9437
:10417000712080E0CF910895CF930E94451F811157
:1041800002C00E941F1FC5E608C00E944A0D8FE3AF
:104190009CE90197F1F700C00000C150B1F789E236
:1041A0000E94AE208111EFC08AE20E94AE208111F0
:1041B0000E941F1F85E00E94AE2081110E944F20A7
:1041C0000E94501F8093370287E00E94AE20882310
:1041D00071F08BE10E94AE20882309F4B1C0909168
:1041E0003702892F8D7F91FF826080933702809103
:1041F00037020E94541F0E94621F90E09093A10218
:104200008093A00280EE0E94AE20882341F090911E
:10421000A002892F8E7F90FF81608093A00289E3A6
:104220000E94AE20882341F09091A002892F8D7FBB
:1042300091FF82608093A00282EE0E94AE208823CC
:1042400041F09091A002892F8B7F92FF8460809330
:10425000A00286EE0E94AE20882341F09091A00239
:10426000892F877F93FF88608093A00283EE0E944E
:10427000AE20882341F09091A002892F8F7E94FF79
:1042800080618093A00285E30E94AE20882341F0E4
:104290009091A002892F8F7D95FF80628093A0026C
:1042A00081E30E94AE20882341F09091A002892FE3
:1042B0008F7B96FF80648093A00281E10E94AE20F4
:1042C000882341F09091A002892F97FB87F98058AD
:1042D0008093A0028091A0020E94661F87E20E9444
:1042E000AE20C82F8EE10E94AE208111C2608FE106
:1042F0000E94AE208111C46080E20E94AE20811134
:10430000C86081E20E94AE208111C06182E20E94F9
:10431000AE208111C06283E20E94AE208111C06490
:1043200084E20E94AE20882341F1C0688C2F0E9455
:104330005D1F6C2F70E090E080E0CF910C94F71B34
:104340008EE00E94AE20882339F090913702892FA9
:104350008B7F92FF846049CF80E10E94AE209091D4
:104360003702882329F0892F877F93FF88603DCF0C
:10437000892F8E7F90FF816038CFC111D7CF0E94E7
:10438000591F682FD7CFCF91089580913B0280FFAE
:1043900012C06091060185E0689FB00111247595F7
:1043A00067957595679560387105A8F56115710574
:1043B000A1F1862F089581FF09C06091060185E073
:1043C000689FB001112475956795EDCF82FF07C0F6
:1043D0006091060185E0689FB0011124E4CF20912F
:1043E0003C022223A9F0909105016091060185E02D
:1043F000689FB00111242917B0F6269FA001279FBE
:10440000500D1124692F70E0CA010E94B02CCBCF4F
:1044100065E070E0CECF8FE7089581E00895809148
:104420003B0280FF0CC06091040170E075956795B8
:10443000759567956115710549F1862F089581FF7E
:1044400006C06091040170E075956795F3CF6091A7
:10445000040182FD0BC090913C029923A1F0609170
:10446000030180910401961738F0682F70E06038DE
:10447000710500F38FE70895899FC001112470E052
:104480000E94B02CF4CF61E070E0D7CF81E00895B6
:10449000803F31F40E94C521819580933F020895A9
:1044A000813F19F40E94C521F8CF823F31F40E9468
:1044B000C521819580933E020895833F19F40E949F
:1044C000C521F8CF893F29F40E940F228093400232
:1044D00008958A3F21F40E940F228195F7CF8B3FE8
:1044E00031F40E940F2281958093410208958C3F00
:1044F00019F40E940F22F8CF843F31F480913D02DD
:10450000816080933D020895853F21F480913D02B2
:104510008260F7CF863F21F480913D028460F1CF25
:10452000873F21F480913D028860EBCF883F21F4E2
:1045300080913D028061E5CF8D3F31F480913B0257
:10454000816080933B0208958E3F21F480913B026D
:104550008260F7CF8F3FB9F780913B028460F1CF43
:10456000803FC1F480913F0287FD10923F0280910D
:104570003E0281110EC080913F0281110AC08091DC
:104580004002811106C080914102811102C0109247
:104590003C020895813F29F480913F0218162CF3C4
:1045A000E6CF90913E02823F29F497FFE0CF109230
:1045B0003E02DDCF833F19F41916CCF3D8CF893FE3
:1045C00039F480914002181694F610924002CFCF31
:1045D0008A3F29F48091400287FFC9CFF6CF8B3FF5
:1045E00039F48091410287FFC2CF10924102BFCFC0
:1045F0008C3F29F4809141021816BCF3B8CF843F58
:1046000031F480913D028E7F80933D02B0CF853F93
:1046100021F480913D028D7FF7CF863F21F4809178
:104620003D028B7FF1CF873F21F480913D02877F50
:10463000EBCF883F21F480913D028F7EE5CF8D3F07
:1046400031F480913B028E7F80933B0290CF8E3F6E
:1046500021F480913B028D7FF7CF8F3F09F087CF08
:1046600080913B028B7FF0CF8DE392E00E943A1362
:104670000E94F41F90933A028093390208951F9389
:10468000CF93DF938091390290913A020E940020EB
:10469000AC0190913C022091070130E0911106C0DD
:1046A000209108018AE0289F9001112442175307A6
:1046B00080F080913E02C0913F0210914002D09163
:1046C000410281110AC0C11178C0111176C0D11107
:1046D00074C0DF91CF911F9108959F3F19F09F5FA4
:1046E00090933C02181624F40E94C52180933E0248
:1046F00080913E0287FF05C00E94C521819580936D
:104700003E021C1624F40E94C52180933F02809132
:104710003F0287FF05C00E94C521819580933F021B
:1047200060913E02662331F1C0913F02CC2311F12A
:10473000062E000C770B880B990B0E94A32B23E30A
:1047400033E343E35FE30E94072C0E946B2B6093EB
:104750003E026C2FCC0F770B880B990B0E94A32B7A
:1047600023E333E343E35FE30E94072C0E946B2BB8
:1047700060933F02111624F40E940F22809340029E
:104780008091400287FF05C00E940F22819580938F
:1047900040021D1624F40E940F2280934102809152
:1047A000410287FF05C00E940F228195809341023C
:1047B000DF91CF911F910C9434239F3F09F08FCF4D
:1047C000A0CF85E0EDE3F2E0DF011D928A95E9F7E5
:1047D00010923C0210923B0208950E94451F8111E5
:1047E00002C00E941F1F0E946B1F8093A20280FFC5
:1047F00003C086950C94430A80E0FCCF8091A2020E
:10480000982F9695953030F49F5F990F8170892B82
:104810008093A2028091A20281608093A2020E94F2
:104820006F1F8091A20286950C94430A8091A20288
:10483000982F9E7F79F082508093A2028E7F91E024
:1048400009F490E08091A20290FB80F98093A2028B
:104850000E946F1F8091A20286950C94430A90914A
:10486000A202892F8E7F90FF81608093A2020E9416
:104870006F1F8091A20280FF03C086950C94430AAB
:1048800080E0FCCF9091A202892F86958F5F8F7771
:1048900091708630B8F4880F892B8093A2028091A2
:1048A000A2028E7F91E009F490E08091A20290FB39
:1048B00080F98093A2020E946F1F8091A2028695C8
:1048C0000C94430A9093A202EACF9091A202292F5E
:1048D00026958227880F9170982B9093A2029E7F35
:1048E00021E009F420E08091A20220FB80F980936E
:1048F000A2020E946F1F8091A20286950C94430A27
:10490000809162020895CF93DF9300D01F92CDB7BC
:10491000DEB79C018091A702843019F593E099835A
:104920003B832A839093E9008FEF9091E8008150B8
:1049300095FD06C095ED9A95F1F700008111F5CF30
:104940008091E80085FF0DC050E040E063E070E03A
:10495000CE0101960E94E0268091E8008E77809338
:10496000E8000F900F900F90DF91CF910895CF93B3
:10497000DF9300D01F92CDB7DEB72091A70224307D
:1049800031F522E02983805891099B838A8383E053
:104990008093E9008FEF9091E800815095FD06C06B
:1049A00095ED9A95F1F700008111F5CF8091E8001F
:1049B00085FF0DC050E040E063E070E0CE0101965D
:1049C0000E94E0268091E8008E778093E8000F90A7
:1049D0000F900F90DF91CF9108959C018091A702D5
:1049E0008430F9F482E08093E9009FEF8091E80041
:1049F000915085FD06C085ED8A95F1F70000911173
:104A0000F5CF8091E80085FF0CC050E040E065E004
:104A100070E0C9010E94E0268091E8008E778093C3
:104A2000E8000895CF93DF93EC018091A7028430D2
:104A3000F1F4909113019923E9F09091A00297FF6E
:104A400019C08093E9008FEF9091E800815095FDA7
:104A500006C095E19A95F1F700008111F5CF80919C
:104A6000E80050E040E060E270E085FD1AC0DF91B0
:104A7000CF91089581E08093E9008FEF9091E80055
:104A8000815095FD06C095ED9A95F1F700008111D2
:104A9000F5CF8091E80085FFEACF50E040E068E084
:104AA00070E0CE010E94E0268091E8008E7780932E
:104AB000E80080E2FE01A2E4B2E001900D928A9546
:104AC000E1F7D5CF8091A602811109C00E9470281C
:104AD0000E94CD288091E20084608093E2000895D6
:104AE0001092A6020895089508950C94BA1F42E00A
:104AF00061EC81E00E94EE2742E061EC82E00E94DE
:104B0000EE2742E061EC83E00E94EE2742E261EC96
:104B100084E00C94EE278091A902833009F455C0FB
:104B200030F4813071F1823009F491C008958A30F7
:104B300009F47DC08B3009F463C0893009F044C0AA
:104B40008091A802813209F03FC08091AC0290911F
:104B5000AD02009711F00397B9F58091E800877FC7
:104B60008093E8008091E80082FF2AC08091F100E4
:104B7000809362028091E8008B778093E8000C9428
:104B800022288091A802813AF9F48091E800877F79
:104B90008093E8008091AC029091AD02892B61F482
:104BA00060E282E492E070E00E942F278091E800AA
:104BB0008B778093E800089560E090E080E0F3CF89
:104BC0008091A7028111CECF08958091A802813AE9
:104BD000D9F78091AC029091AD02892BA9F7809111
:104BE000E800877F8093E8008091E80080FFFCCF99
:104BF000809113018093F1008091E8008E77BDCF02
:104C00008091A802813201F78091AC029091AD02AF
:104C1000892BD1F68091E800877F8093E8000E947D
:104C200022288091AA02809313010C94231880916A
:104C3000A802813249F68091E800877F8093E800DE
:104C40000E9422288091AB02809363020895809194
:104C5000A802813A09F0B8CF8091E800877F80935D
:104C6000E8008091E80080FFFCCF80916302C2CF12
:104C700084B7877F84BF0FB6F894A89580916000B1
:104C8000886180936000109260000FBE80E880937E
:104C90006100109261000E9472130E9470280E94AD
:104CA000CD288091E20084608093E20078940E9495
:104CB0004F2B0E94741389E091E00E941E13809193
:104CC000A702853029F00E947E130E94EB12F7CFD5
:104CD0000E94741F8091A502882389F30E94A51F5A
:104CE000882369F30E94CA26EACF292F332723306D
:104CF000310579F158F421303105F1F022303105D8
:104D000019F190E080E030E020E01AC02132310556
:104D100099F122323105A9F7643098F770E0FB0170
:104D2000EE0FFF1FE25DFE4F20813181665D7E4FF9
:104D3000FB01808190E004C082E190E026E53FE045
:104D4000FA013183208308958DE690E029EE3EE05C
:104D5000F7CF99278130910561F028F0029789F605
:104D6000E9EBFEE002C0E5EEFEE0849190E09F01F9
:104D7000E7CFEDECFEE0F9CF643008F0C2CFE62FCC
:104D8000F0E0EE0FFF1FEA5CFE4F2081318189E0E9
:104D900090E0D6CF80E189BD82E189BD09B400FEF3
:104DA000FDCF8091D8008F7D8093D8008091E00066
:104DB00082608093E0008091E00081FDFCCF089547
:104DC000AF92BF92CF92DF92FF920F931F93CF9338
:104DD000DF936C01EB018A010E944128F82E8111BA
:104DE00023C00115110539F0F80180819181C81B9C
:104DF000D90BC80ED91EB12CA12C2097A9F08091F7
:104E0000E80085FD22C08091E8008E778093E8005D
:104E100001151105A1F0F80180819181A80EB91E3C
:104E2000B182A08285E0F82E8F2DDF91CF911F9166
:104E30000F91FF90DF90CF90BF90AF9008950E94A8
:104E400041288823D1F2F82EEFCFF60181916F012E
:104E50008093F1002197FFEFAF1ABF0ACECFFC017C
:104E60008091AE029091AF0286179707A0F061156E
:104E7000710529F49091E8009E779093E80090E006
:104E80006115710551F4911108C08091E80082FF0D
:104E900035C080E00895BC01F2CF8091A70288233D
:104EA000C9F18530C9F18091E80083FD31C080915E
:104EB000E80082FDEACF8091E80080FFE1CF2091F9
:104EC000F3008091F200322F282F6115710519F03F
:104ED0002830310558F091E02830310509F090E094
:104EE0002091E8002E772093E800CACF819180932B
:104EF000F100615071092F5F3F4FE7CF8091A7020A
:104F0000882341F0853041F08091E80083FFBDCFD8
:104F100081E0089582E0089583E00895FC01809186
:104F2000AE029091AF0286179707A0F06115710548
:104F300029F48091E8008E778093E80090E0611575
:104F4000710551F4911108C08091E80082FF36C0CC
:104F500080E00895BC01F2CF8091A7028823D1F1AF
:104F60008530D1F18091E80083FD32C08091E80066
:104F700082FDEACF8091E80080FFE1CF2091F3002D
:104F80008091F200322F282F6115710519F0283019
:104F9000310558F091E02830310509F090E080911A
:104FA000E8008E778093E800CACF84918093F10067
:104FB0003196615071092F5F3F4FE6CF8091A70274
:104FC000882341F0853041F08091E80083FFBCCF19
:104FD00081E0089582E0089583E00895982F973046
:104FE00028F08F708093E90081E008959093E900A4
:104FF000242F762F50E0981731F07091EC0020911B
:10500000ED005091F00021FD02C09F5FE8CF30918C
:10501000EB003E7F3093EB003091ED003D7F30930D
:10502000ED003091EB0031603093EB007093EC00B9
:105030002093ED005093F0002091EE0027FDE5CF86
:1050400080E008958091A80287FF13C08091E80056
:1050500082FF06C08091E8008B778093E80004C04F
:105060008091A7028111F2CF08958091A702882331
:10507000D9F38091E80080FFF8CF8091E8008E7727
:10508000ECCF2091E4003091E50085E69091EC00B2
:1050900090FF06C09091E80090FF06C080E0089560
:1050A0009091E80092FDFACF9091A702992391F098
:1050B000953091F09091EB0095FD10C04091E40087
:1050C0005091E5002417350709F381509A01F1F654
:1050D00084E0089582E0089583E0089581E00895D2
:1050E0000E94DE280E94E628E0EEF0E080818160E8
:1050F0008083E8EDF0E080818F77808319BCA7ED95
:10510000B0E08C918E7F8C9380818F7E8083109213
:10511000A60208950F931F93CF93DF930E94DE287A
:105120000E94E628C8EDD0E088818F778883888147
:105130008068888388818F7D888319BC1092A7023C
:105140001092A3021092A5021092A40200EE10E0A9
:10515000F80180818B7F808388818160888342E031
:1051600060E080E00E94EE27E1EEF0E080818E7F3B
:105170008083E2EEF0E080818160808380818860BE
:105180008083F80180818E7F80838881806188831D
:10519000DF91CF911F910F910895E8EDF0E08081AC
:1051A0008F7E8083E7EDF0E080818160808384E002
:1051B00082BF81E08093A6020C948A28E8EDF0E09B
:1051C00080818E7F80831092E20008951092DA0031
:1051D0001092E10008951F920F920FB60F921124C2
:1051E0002F933F934F935F936F937F938F939F93EF
:1051F000AF93BF93EF93FF938091E10082FF0BC0C9
:105200008091E20082FF07C08091E1008B7F809354
:10521000E1000E944E2B8091DA0080FF19C080913E
:10522000D80080FF15C08091DA008E7F8093DA006D
:105230008091D90080FF94C080E189BD82E189BD61
:1052400009B400FEFDCF81E08093A7020E94622591
:105250008091E10080FF19C08091E20080FF15C0BD
:105260008091E2008E7F8093E2008091E200806175
:105270008093E2008091D80080628093D80019BCAE
:1052800085E08093A7020E9474258091E10084FF4D
:1052900029C08091E20084FF25C080E189BD82E1C0
:1052A00089BD09B400FEFDCF8091D8008F7D809329
:1052B000D8008091E1008F7E8093E1008091E20030
:1052C0008F7E8093E2008091E20081608093E20013
:1052D0008091A302882309F449C084E08093A70247
:1052E0000E9475258091E10083FF29C08091E20032
:1052F00083FF25C08091E100877F8093E10082E0F9
:105300008093A7021092A3028091E1008E7F809388
:10531000E1008091E2008E7F8093E2008091E200C4
:1053200080618093E20042E060E080E00E94EE272E
:105330008091F00088608093F0000E947325FF91B7
:10534000EF91BF91AF919F918F917F916F915F91FD
:105350004F913F912F910F900FBE0F901F90189576
:1053600019BC1092A7020E94702572CF8091E300B1
:1053700087FD02C081E0B2CF83E0B0CF1F920F92D1
:105380000FB60F9211242F933F934F935F936F9318
:105390007F938F939F93AF93BF93CF93EF93FF939D
:1053A000C091E900CF708091EC001092E9008091EB
:1053B000F000877F8093F00078940E94FA29109281
:1053C000E9008091F00088608093F000C093E900CC
:1053D000FF91EF91CF91BF91AF919F918F917F916D
:1053E0006F915F914F913F912F910F900FBE0F9052
:1053F0001F9018951F93CF93DF93CDB7DEB7AA9771
:105400000FB6F894DEBF0FBECDBFE8EAF2E08091A0
:10541000F100819322E0E03BF207C9F70E948B255F
:105420008091E80083FF42C08091A8029091A90278
:105430009A3008F03BC0E92FF0E0EF5DF54D0C9499
:10544000C42C2B2A4F2A562A4F2A562AAA2ACC2A5B
:10545000562A212B2E2B803879F0823839F580910D
:10546000AC028F708093E9008091EB0085FB882768
:1054700080F91092E90006C08091A4029091A502E3
:10548000911182609091E800977F9093E80080935B
:10549000F1001092F1008091E8008E772DC0282F46
:1054A0002D7F21F48823D1F0823059F18091E800DA
:1054B00083FF0AC08091E800877F8093E800809195
:1054C000EB0080628093EB00AA960FB6F894DEBFE3
:1054D0000FBECDBFDF91CF911F9108958091AA0299
:1054E000813021F7933009F080E08093A50210927B
:1054F000E9008091E800877F8093E8000E942228DD
:10550000D5CF8091AA028111F2CF8091AC028F7029
:1055100069F28093E9002091EB0020FFE8CF9330FF
:1055200031F48091EB0080628093EB00E0CF9091AA
:10553000EB0090619093EB0021E030E001C0220F7E
:105540008A95EAF72093EA001092EA008091EB0036
:105550008860EACF8111AACF1091AA021F778091AB
:10556000E3008078812B8093E3008091E800877FBF
:105570008093E8000E9422288091E80080FFFCCF01
:105580008091E30080688093E30083E0111101C003
:1055900082E08093A7028ACF8058823008F086CFBD
:1055A0008091AA029091AB028C3D23E09207A1F575
:1055B00083E08A838AE289834FB7F894DE011396E9
:1055C00020E03EE051E2E32FF0E050935700E491F9
:1055D00020FF03C0E295EF703F5FEF708E2F90E0E9
:1055E000EA30C0F0C7968D939D932F5F243159F711
:1055F0004FBF8091E800877F8093E8006AE270E007
:10560000CE0101960E942F278091E8008B7780932E
:10561000E8004CCFC096E7CFAE014F5F5F4F60917F
:10562000AC020E947526BC01892B09F43FCF9091F2
:10563000E800977F9093E80089819A810E948E27E5
:10564000E3CF803809F032CF8091E800877F8093E4
:10565000E8008091A3028093F1001DCF811126CF35
:105660009091AA02923008F021CF8091E800877FC4
:105670008093E8009093A3020E9422288091A302C5
:10568000882331F084E08093A7020E9477250ECF13
:105690008091E30087FDF6CF81E0F5CF0895CF93A9
:1056A0008091A702882399F0C091E900CF70809182
:1056B000EC0080FD0EC080E0C82B1092E9008091C4
:1056C000E80083FD0E94FA29CF70C093E900CF91D2
:1056D000089580E8F1CF0E94722B6894B1110C9468
:1056E000012C08950E94E62B88F09F5798F0B92F5F
:1056F0009927B751B0F0E1F0660F771F881F991F07
:105700001AF0BA95C9F714C0B13091F00E94002C7C
:10571000B1E008950C94002C672F782F8827B85F8C
:1057200039F0B93FCCF3869577956795B395D9F75E
:105730003EF490958095709561957F4F8F4F9F4F68
:105740000895E89409C097FB3EF490958095709574
:1057500061957F4F8F4F9F4F9923A9F0F92F96E9BD
:10576000BB279395F695879577956795B795F11132
:10577000F8CFFAF4BB0F11F460FF1BC06F5F7F4FCF
:105780008F4F9F4F16C0882311F096E911C07723E1
:1057900021F09EE8872F762F05C0662371F096E8EA
:1057A000862F70E060E02AF09A95660F771F881FB9
:1057B000DAF7880F9695879597F9089557FD9058D1
:1057C000440F551F59F05F3F71F04795880F97FBC5
:1057D000991F61F09F3F79F087950895121613067F
:1057E0001406551FF2CF4695F1DF08C016161706AE
:1057F0001806991FF1CF86957105610508940895E3
:10580000E894BB2766277727CB0197F908950E9474
:105810001A2C0C948B2C0E947D2C38F00E94842C26
:1058200020F0952311F00C94742C0C947A2C1124F4
:105830000C94012C0E94DE2B70F3959FC1F3950F01
:1058400050E0551F629FF001729FBB27F00DB11D04
:10585000639FAA27F00DB11DAA1F649F6627B00D94
:10586000A11D661F829F2227B00DA11D621F739F7D
:10587000B00DA11D621F839FA00D611D221F749F8B
:105880003327A00D611D231F849F600D211D822FD2
:10589000762F6A2F11249F5750409AF0F1F08823F9
:1058A0004AF0EE0FFF1FBB1F661F771F881F915026
:1058B0005040A9F79E3F510580F00C94742C0C9435
:1058C000012C5F3FE4F3983ED4F386957795679576
:1058D000B795F795E7959F5FC1F7FE2B880F911D50
:1058E0009695879597F9089597F99F6780E870E0F6
:1058F00060E008959FEF80EC089500240A94161646
:10590000170618060906089500240A9412161306AD
:10591000140605060895092E0394000C11F488233B
:1059200052F0BB0F40F4BF2B11F460FF04C06F5F57
:105930007F4F8F4F9F4F0895AA1BBB1B51E107C09C
:10594000AA1FBB1FA617B70710F0A61BB70B881F0F
:10595000991F5A95A9F780959095BC01CD0108959E
:1059600097FB072E16F4009407D077FD09D00E940C
:105970009C2C07FC05D03EF4909581959F4F08958F
:10598000709561957F4F0895EE0FFF1F0590F4917C
:10599000E02D0994F999FECF92BD81BDF89A99271F
:1059A00080B50895A6E1B0E044E050E00C94042DE9
:1059B000A8E1B0E042E050E00C94042D262FF999C4
:1059C000FECF92BD81BDF89A019700B4021639F05E
:1059D0001FBA20BD0FB6F894FA9AF99A0FBE08952F
:1059E0000396272F0E94DF2C0E94DE2C252F0E9479
:1059F000DF2C242F0C94DF2C0196272F0E94DF2C04
:105A00000C94DE2CDC01CB01FC01F999FECF06C021
:105A1000F2BDE1BDF89A319600B40D92415050406C
:085A2000B8F70895F894FFCFD8
:105A2800FF14022808140A321E80241225ED24B718
:105A380024832401F0F1C66766F594313035349734
:105A48009633F4F6909192939537404D3639241059
:0E5A5800D70FA10F680FFB0E140F2D0F460F76
:00000001FF
